S01400006932634F66456D62656465642E73726563B7
S113000071C0000086C0000084C0000082C00000EF
S113001080C000007EC000007CC000007AC00000E8
S113002078C0000076C0000074C0000072C00000F8
S113003070C000006EC000006CC000006AC0000008
S113004068C0000066C0000064C0000062C0000018
S113005060C000005EC000005CC000005AC0000028
S113006058C0000056C0000054C0000052C0000038
S113007050C000004EC000004CC000004AC0000048
S113008048C0000046C0000044C0000042C0000058
S113009040C000003EC000003CC000003AC0000068
S11300A038C0000036C0000034C0000032C0000078
S11300B030C000002EC000002CC000002AC0000088
S11300C028C0000026C0000024C0000022C0000098
S11300D020C000001EC000001CC000001AC00000A8
S11300E018C0000011241FBECFEFD1E2DEBFCDBF88
S11300F000E00CBF12E0A0E0B2E0ECE8F5E000E0C4
S11301000BBF02C007900D92A630B107D9F78FD06C
S11301103BC276CF88E48093B8000895ECEBF0E01E
S1130120108294EA908390819923ECF79091B9001E
S1130130987F9830A1F48093BB0084E88093BC003E
S1130140ECEBF0E080818823ECF79091B900987F84
S1130150983139F081E0903429F480E0089581E009
S1130160089580E008958093BB0084E88093BC00E8
S1130170ECEBF0E080818823ECF79091B900987F54
S113018081E0983209F480E0089584EC8093BC0007
S1130190ECEBF0E080818823ECF78091BB000895BC
S11301A084E88093BC00ECEBF0E080818823ECF7DA
S11301B08091BB00089584E98093BC000895019761
S11301C09C0140E050E060E472E48FE090E0AED047
S11301D0832F99278093C5002093C400E1ECF0E0BD
S11301E0808188698083E2ECF0E080818E60808386
S11301F00895E0ECF0E0908195FFFDCF8093C60078
S11302000895CF93DF93EC018881882329F0219608
S1130210F0DF89918111FCCFDF91CF91089580EDBA
S11302207DDF8BE6A0DF80E09EDFC5CF0895CF930E
S1130230DF93CDB7DEB72D970FB6F894DEBF0FBEB0
S1130240CDBF80E895E2BBDF65DFE9DF912C0F2E9F
S1130250FAE04F2EF02D512C692C792C892C9B8699
S11302609C869D86292C392C80ED58DF8BE37BDF1F
S1130270A2DF81ED53DF89DF082F10E0102F002764
S113028084DF082B82DF8CDF80DF7FDF94DFA8012F
S1130290242F352F492D592D692D792D892D992DEF
S11302A0A62CB72CC82CDB84EC84FD84022D132DE2
S11302B02FD1622E732E842E5B876C877D87282E28
S11302C0392E21E0421A510879F60F2EFAE0AF2EAA
S11302D0F02DB92CC92CD92CE92CF92C092D192D68
S11302E0262D48D02652324041095109610971092D
S11302F0810991094AE0BE016F5F7F4F822F932FDE
S113030010D180E092E07DDFCE0101967ADF83E0B8
S113031092E077DF8AE06DDF8FEF93EC29E0815084
S113032090402040E1F700C0000091CFA1E21A2ED6
S1130330AA1BBB1BFD010DC0AA1FBB1FEE1FFF1F85
S1130340A217B307E407F50720F0A21BB30BE40BD5
S1130350F50B661F771F881F991F1A9469F760951C
S11303607095809590959B01AC01BD01CF010895D6
S1130370689401C0E894F92FF12B0AF027C0A0E09B
S1130380B0E0E4ECF1E093C0092E05941AF479D0BE
S1130390112392F4F0E80F26FFEFE094F094009517
S11303A01095B094C094D094A194BF0ACF0ADF0AE8
S11303B0EF0AFF0A0F0B1F0B13D007FC62D0CDB757
S11303C0DEB7ECE090C0689401C0E8948F929F92ED
S11303D0CF93DF9305D0DF91CF919F908F900895B5
S11303E088249924F401E401B0E49F93AA279A1580
S11303F08B049C04ED05FE05CF05D007A10798F4F6
S1130400AD2FDC2FCF2FFE2FE92D982C892E982F7E
S1130410872F762F652F542F432F322F2227B85042
S113042031F7BF9127C01B2EBF91BB27220F331F6B
S1130430441F551F661F771F881F991F881C991C0E
S1130440EE1FFF1FCC1FDD1FAA1FBB1F8A149B04B6
S1130450EC05FD05CE05DF05A007B10748F08A18B5
S11304609B08EC09FD09CE09DF09A00BB10B216043
S11304701A94E1F62EF49401AF01BE01CD01000CF3
S11304800895609570958095909530954095509518
S113049021953F4F4F4F5F4F6F4F7F4F8F4F9F4F70
S11304A008952F923F924F925F926F927F928F9214
S11304B09F92AF92BF92CF92DF92EF92FF920F93EF
S11304C01F93CF93DF93CDB7DEB7CA1BDB0B0FB6F9
S11304D0F894DEBF0FBECDBF19942A8839884888A6
S11304E05F846E847D848C849B84AA84B984C8844C
S11304F0DF80EE80FD800C811B81AA81B981CE0F43
S1130500D11D0FB6F894DEBF0FBECDBFED01089527
S11305102A0D3B1D4C1D5D1D6E1D7F1D801F911FEF
S11305200895BB274A3031F4992322F4BDE2909513
S113053081959F4F01C0BB27FB015527AA27880F30
S1130540991FAA1FA41710F0A41B83955051B9F743
S1130550A05DAA3308F0A95DA193009779F7B111C2
S1130560B1931192CB0100C0DC01FC01672F7191A2
S11305707723E1F7329704C07C916D937083629185
S10F0580AE17BF07C8F30895F894FFCF2E
S109058C783D0020200070
S9030000FC
